{
  "contractName": "Kittycontract",
  "abi": [
    {
      "anonymous": false,
      "inputs": [
        {
          "indexed": false,
          "internalType": "address",
          "name": "owner",
          "type": "address"
        },
        {
          "indexed": false,
          "internalType": "uint256",
          "name": "kittenId",
          "type": "uint256"
        },
        {
          "indexed": false,
          "internalType": "uint256",
          "name": "mumId",
          "type": "uint256"
        },
        {
          "indexed": false,
          "internalType": "uint256",
          "name": "dadId",
          "type": "uint256"
        },
        {
          "indexed": false,
          "internalType": "uint256",
          "name": "genes",
          "type": "uint256"
        }
      ],
      "name": "Birth",
      "type": "event"
    },
    {
      "anonymous": false,
      "inputs": [
        {
          "indexed": true,
          "internalType": "address",
          "name": "from",
          "type": "address"
        },
        {
          "indexed": true,
          "internalType": "address",
          "name": "to",
          "type": "address"
        },
        {
          "indexed": true,
          "internalType": "uint256",
          "name": "tokenId",
          "type": "uint256"
        }
      ],
      "name": "Transfer",
      "type": "event"
    },
    {
      "inputs": [
        {
          "internalType": "uint256",
          "name": "",
          "type": "uint256"
        }
      ],
      "name": "kittyIndexToOwner",
      "outputs": [
        {
          "internalType": "address",
          "name": "",
          "type": "address"
        }
      ],
      "stateMutability": "view",
      "type": "function"
    },
    {
      "inputs": [],
      "name": "name",
      "outputs": [
        {
          "internalType": "string",
          "name": "",
          "type": "string"
        }
      ],
      "stateMutability": "view",
      "type": "function"
    },
    {
      "inputs": [],
      "name": "symbol",
      "outputs": [
        {
          "internalType": "string",
          "name": "",
          "type": "string"
        }
      ],
      "stateMutability": "view",
      "type": "function"
    },
    {
      "inputs": [
        {
          "internalType": "address",
          "name": "owner",
          "type": "address"
        }
      ],
      "name": "balanceOf",
      "outputs": [
        {
          "internalType": "uint256",
          "name": "balance",
          "type": "uint256"
        }
      ],
      "stateMutability": "view",
      "type": "function"
    },
    {
      "inputs": [],
      "name": "totalSupply",
      "outputs": [
        {
          "internalType": "uint256",
          "name": "",
          "type": "uint256"
        }
      ],
      "stateMutability": "view",
      "type": "function"
    },
    {
      "inputs": [
        {
          "internalType": "uint256",
          "name": "_tokenId",
          "type": "uint256"
        }
      ],
      "name": "ownerOf",
      "outputs": [
        {
          "internalType": "address",
          "name": "",
          "type": "address"
        }
      ],
      "stateMutability": "view",
      "type": "function"
    },
    {
      "inputs": [
        {
          "internalType": "address",
          "name": "_to",
          "type": "address"
        },
        {
          "internalType": "uint256",
          "name": "_tokenId",
          "type": "uint256"
        }
      ],
      "name": "transfer",
      "outputs": [],
      "stateMutability": "nonpayable",
      "type": "function"
    },
    {
      "inputs": [
        {
          "internalType": "address",
          "name": "_owner",
          "type": "address"
        }
      ],
      "name": "getAllCatsFor",
      "outputs": [
        {
          "internalType": "uint256[]",
          "name": "cats",
          "type": "uint256[]"
        }
      ],
      "stateMutability": "view",
      "type": "function"
    },
    {
      "inputs": [
        {
          "internalType": "uint256",
          "name": "_genes",
          "type": "uint256"
        }
      ],
      "name": "createKittyGen0",
      "outputs": [
        {
          "internalType": "uint256",
          "name": "",
          "type": "uint256"
        }
      ],
      "stateMutability": "nonpayable",
      "type": "function"
    }
  ],
  "bytecode": "0x608060405234801561001057600080fd5b50610e29806100206000396000f3fe608060405234801561001057600080fd5b50600436106100935760003560e01c806370a082311161006657806370a082311461013457806395d89b4114610164578063a45f4bfc14610182578063a9059cbb146101b2578063d5a776ca146101ce57610093565b806306fdde031461009857806318160ddd146100b65780635a64aafa146100d45780636352211e14610104575b600080fd5b6100a06101fe565b6040516100ad9190610c19565b60405180910390f35b6100be610237565b6040516100cb9190610c3b565b60405180910390f35b6100ee60048036038101906100e99190610a1f565b610243565b6040516100fb9190610bf7565b60405180910390f35b61011e60048036038101906101199190610a84565b6102da565b60405161012b9190610b89565b60405180910390f35b61014e60048036038101906101499190610a1f565b610317565b60405161015b9190610c3b565b60405180910390f35b61016c610363565b6040516101799190610c19565b60405180910390f35b61019c60048036038101906101979190610a84565b61039c565b6040516101a99190610b89565b60405180910390f35b6101cc60048036038101906101c79190610a48565b6103cf565b005b6101e860048036038101906101e39190610a84565b610464565b6040516101f59190610c3b565b60405180910390f35b6040518060400160405280600b81526020017f546573744b69747469657300000000000000000000000000000000000000000081525081565b60008080549050905090565b6060600260008373ffffffffffffffffffffffffffffffffffffffff1673ffffffffffffffffffffffffffffffffffffffff1681526020019081526020016000208054806020026020016040519081016040528092919081815260200182805480156102ce57602002820191906000526020600020905b8154815260200190600101908083116102ba575b50505050509050919050565b60006001600083815260200190815260200160002060009054906101000a900473ffffffffffffffffffffffffffffffffffffffff169050919050565b6000600260008373ffffffffffffffffffffffffffffffffffffffff1673ffffffffffffffffffffffffffffffffffffffff168152602001908152602001600020805490509050919050565b6040518060400160405280600281526020017f544b00000000000000000000000000000000000000000000000000000000000081525081565b60016020528060005260406000206000915054906101000a900473ffffffffffffffffffffffffffffffffffffffff1681565b600073ffffffffffffffffffffffffffffffffffffffff168273ffffffffffffffffffffffffffffffffffffffff16141561040957600080fd5b3073ffffffffffffffffffffffffffffffffffffffff168273ffffffffffffffffffffffffffffffffffffffff16141561044257600080fd5b61044c338261047c565b61045557600080fd5b6104603383836104e8565b5050565b60006104756000806000853361082a565b9050919050565b60008273ffffffffffffffffffffffffffffffffffffffff166001600084815260200190815260200160002060009054906101000a900473ffffffffffffffffffffffffffffffffffffffff1673ffffffffffffffffffffffffffffffffffffffff1614905092915050565b816001600083815260200190815260200160002060006101000a81548173ffffffffffffffffffffffffffffffffffffffff021916908373ffffffffffffffffffffffffffffffffffffffff160217905550600260008373ffffffffffffffffffffffffffffffffffffffff1673ffffffffffffffffffffffffffffffffffffffff168152602001908152602001600020819080600181540180825580915050600190039060005260206000200160009091909190915055600073ffffffffffffffffffffffffffffffffffffffff168373ffffffffffffffffffffffffffffffffffffffff16146107ca576000600260008573ffffffffffffffffffffffffffffffffffffffff1673ffffffffffffffffffffffffffffffffffffffff16815260200190815260200160002080548060200260200160405190810160405280929190818152602001828054801561065f57602002820191906000526020600020905b81548152602001906001019080831161064b575b50505050509050600260008573ffffffffffffffffffffffffffffffffffffffff1673ffffffffffffffffffffffffffffffffffffffff16815260200190815260200160002060006106b191906109b7565b60005b81518160ff1610156107c75782828260ff16815181106106fd577f4e487b7100000000000000000000000000000000000000000000000000000000600052603260045260246000fd5b6020026020010151146107b457600260008673ffffffffffffffffffffffffffffffffffffffff1673ffffffffffffffffffffffffffffffffffffffff168152602001908152602001600020828260ff1681518110610785577f4e487b7100000000000000000000000000000000000000000000000000000000600052603260045260246000fd5b602002602001015190806001815401808255809150506001900390600052602060002001600090919091909150555b80806107bf90610d5b565b9150506106b4565b50505b808273ffffffffffffffffffffffffffffffffffffffff168473ffffffffffffffffffffffffffffffffffffffff167fddf252ad1be2c89b69c2b068fc378daa952ba7f163c4a11628f55a4df523b3ef60405160405180910390a4505050565b6000806040518060a001604052808581526020014267ffffffffffffffff1681526020018863ffffffff1681526020018763ffffffff1681526020018661ffff16815250905060008190806001815401808255809150506001900390600052602060002090600202016000909190919091506000820151816000015560208201518160010160006101000a81548167ffffffffffffffff021916908367ffffffffffffffff16021790555060408201518160010160086101000a81548163ffffffff021916908363ffffffff160217905550606082015181600101600c6101000a81548163ffffffff021916908363ffffffff16021790555060808201518160010160106101000a81548161ffff021916908361ffff16021790555050506000600160008054905061095c9190610cab565b90507f0a5311bd2a6608f08a180df2ee7c5946819a649b204b554bb8e39825b2c50ad584828a8a89604051610995959493929190610ba4565b60405180910390a16109a9600085836104e8565b809250505095945050505050565b50805460008255906000526020600020908101906109d591906109d8565b50565b5b808211156109f15760008160009055506001016109d9565b5090565b600081359050610a0481610dc5565b92915050565b600081359050610a1981610ddc565b92915050565b600060208284031215610a3157600080fd5b6000610a3f848285016109f5565b91505092915050565b60008060408385031215610a5b57600080fd5b6000610a69858286016109f5565b9250506020610a7a85828601610a0a565b9150509250929050565b600060208284031215610a9657600080fd5b6000610aa484828501610a0a565b91505092915050565b6000610ab98383610b6b565b60208301905092915050565b610ace81610cdf565b82525050565b6000610adf82610c66565b610ae98185610c89565b9350610af483610c56565b8060005b83811015610b25578151610b0c8882610aad565b9750610b1783610c7c565b925050600181019050610af8565b5085935050505092915050565b6000610b3d82610c71565b610b478185610c9a565b9350610b57818560208601610d28565b610b6081610db4565b840191505092915050565b610b7481610d11565b82525050565b610b8381610d11565b82525050565b6000602082019050610b9e6000830184610ac5565b92915050565b600060a082019050610bb96000830188610ac5565b610bc66020830187610b7a565b610bd36040830186610b7a565b610be06060830185610b7a565b610bed6080830184610b7a565b9695505050505050565b60006020820190508181036000830152610c118184610ad4565b905092915050565b60006020820190508181036000830152610c338184610b32565b905092915050565b6000602082019050610c506000830184610b7a565b92915050565b6000819050602082019050919050565b600081519050919050565b600081519050919050565b6000602082019050919050565b600082825260208201905092915050565b600082825260208201905092915050565b6000610cb682610d11565b9150610cc183610d11565b925082821015610cd457610cd3610d85565b5b828203905092915050565b6000610cea82610cf1565b9050919050565b600073ffffffffffffffffffffffffffffffffffffffff82169050919050565b6000819050919050565b600060ff82169050919050565b60005b83811015610d46578082015181840152602081019050610d2b565b83811115610d55576000848401525b50505050565b6000610d6682610d1b565b915060ff821415610d7a57610d79610d85565b5b600182019050919050565b7f4e487b7100000000000000000000000000000000000000000000000000000000600052601160045260246000fd5b6000601f19601f8301169050919050565b610dce81610cdf565b8114610dd957600080fd5b50565b610de581610d11565b8114610df057600080fd5b5056fea2646970667358221220cf5c133147cc97da0e8355076b80ddaf6e251050b01a792de2d0979fa3562a8064736f6c63430008000033",
  "immutableReferences": {},
  "source": "pragma solidity ^0.8.0;\n\ncontract Kittycontract {\n\n    string public constant name = \"TestKitties\";\n    string public constant symbol = \"TK\";\n    \n    event Transfer(address indexed from, address indexed to, uint256 indexed tokenId);\n\n    event Birth(\n        address owner, \n        uint256 kittenId, \n        uint256 mumId, \n        uint256 dadId, \n        uint256 genes\n    );\n\n    struct Kitty {\n        uint256 genes;\n        uint64 birthTime;\n        uint32 mumId;\n        uint32 dadId;\n        uint16 generation;\n    }\n\n    Kitty[] kitties;\n\n    mapping (uint256 => address) public kittyIndexToOwner;\n    //mapping (address => uint256) ownershipTokenCount;\n    mapping (address => uint[]) kittiesOfOwner;            // new mapping.\n    \n\n    function balanceOf(address owner) external view returns (uint256 balance){\n        return kittiesOfOwner[owner].length;\n    }\n\n    function totalSupply() public view returns (uint) {\n        return kitties.length;\n    }\n\n    function ownerOf(uint256 _tokenId) external view returns (address)\n    {\n        return kittyIndexToOwner[_tokenId];\n    }\n\n    function transfer(address _to,uint256 _tokenId) external\n    {\n        require(_to != address(0));\n        require(_to != address(this));\n        require(_owns(msg.sender, _tokenId));\n\n        _transfer(msg.sender, _to, _tokenId);\n    }\n    \n    // FIXED //\n    function getAllCatsFor(address _owner) external view returns (uint[] memory cats){\n       \n        return kittiesOfOwner[_owner];\n        \n        \n        /* uint[] memory result = new uint[](ownershipTokenCount[_owner]);\n        uint counter = 0;\n        for (uint i = 0; i < kitties.length; i++) {\n            if (kittyIndexToOwner[i] == _owner) {\n                result[counter] = i;\n                counter++;\n            }\n        }\n        return result;\n        */ \n    }\n    \n    function createKittyGen0(uint256 _genes) public returns (uint256) {\n        return _createKitty(0, 0, 0, _genes, msg.sender);\n    }\n\n    function _createKitty(\n        uint256 _mumId,\n        uint256 _dadId,\n        uint256 _generation,\n        uint256 _genes,\n        address _owner\n    ) private returns (uint256) {\n        Kitty memory _kitty = Kitty({\n            genes: _genes,\n            birthTime: uint64(block.timestamp),\n            mumId: uint32(_mumId),\n            dadId: uint32(_dadId),\n            generation: uint16(_generation)\n        });\n        \n        kitties.push(_kitty);\n\n        uint256 newKittenId = kitties.length - 1;\n\n        emit Birth(_owner, newKittenId, _mumId, _dadId, _genes);\n\n        _transfer(address(0), _owner, newKittenId);\n\n        return newKittenId;\n\n    }\n\n    function _transfer(address _from, address _to, uint256 _tokenId) internal {\n        \n        //ownershipTokenCount[_to]++;\n        kittyIndexToOwner[_tokenId] = _to;\n        kittiesOfOwner[_to].push(_tokenId);\n\n\n        if (_from != address(0)) {\n          //  ownershipTokenCount[_from]--;\n            \n            uint[] memory tokensFrom = kittiesOfOwner[_from];\n            delete kittiesOfOwner[_from];\n\n            for(uint8 l=0; l<tokensFrom.length; l++){\n                if(tokensFrom[l] != _tokenId){\n                   kittiesOfOwner[_from].push(tokensFrom[l]);\n                }\n            }\n            \n           \n\n        }\n\n        // Emit the transfer event.\n        emit Transfer(_from, _to, _tokenId);\n    }\n\n    function _owns(address _claimant, uint256 _tokenId) internal view returns (bool) {\n      return kittyIndexToOwner[_tokenId] == _claimant;\n  }\n\n}\n",
  "sourcePath": "/home/frank/ethadvanced/eth201-2/tokenstandard/contracts/erc721.sol",
  "compiler": {
    "name": "solc",
    "version": "0.8.0+commit.c7dfd78e.Emscripten.clang"
  },
  "schemaVersion": "3.3.4",
  "updatedAt": "2021-04-08T14:21:17.112Z",
  "devdoc": {
    "kind": "dev",
    "methods": {},
    "version": 1
  },
  "userdoc": {
    "kind": "user",
    "methods": {},
    "version": 1
  }
}