{
  "contractName": "Dex",
  "abi": [
    {
      "anonymous": false,
      "inputs": [
        {
          "indexed": true,
          "internalType": "address",
          "name": "previousOwner",
          "type": "address"
        },
        {
          "indexed": true,
          "internalType": "address",
          "name": "newOwner",
          "type": "address"
        }
      ],
      "name": "OwnershipTransferred",
      "type": "event"
    },
    {
      "inputs": [
        {
          "internalType": "address",
          "name": "",
          "type": "address"
        },
        {
          "internalType": "bytes32",
          "name": "",
          "type": "bytes32"
        }
      ],
      "name": "TokenBalances",
      "outputs": [
        {
          "internalType": "uint256",
          "name": "",
          "type": "uint256"
        }
      ],
      "stateMutability": "view",
      "type": "function"
    },
    {
      "inputs": [
        {
          "internalType": "bytes32",
          "name": "",
          "type": "bytes32"
        }
      ],
      "name": "TokenMapping",
      "outputs": [
        {
          "internalType": "bytes32",
          "name": "ticker",
          "type": "bytes32"
        },
        {
          "internalType": "address",
          "name": "TokenAddress",
          "type": "address"
        }
      ],
      "stateMutability": "view",
      "type": "function"
    },
    {
      "inputs": [
        {
          "internalType": "bytes32",
          "name": "_ticker",
          "type": "bytes32"
        },
        {
          "internalType": "address",
          "name": "_tokenAddress",
          "type": "address"
        }
      ],
      "name": "addToken",
      "outputs": [],
      "stateMutability": "nonpayable",
      "type": "function"
    },
    {
      "inputs": [
        {
          "internalType": "uint256",
          "name": "_amount",
          "type": "uint256"
        },
        {
          "internalType": "bytes32",
          "name": "_ticker",
          "type": "bytes32"
        }
      ],
      "name": "deposit",
      "outputs": [],
      "stateMutability": "nonpayable",
      "type": "function"
    },
    {
      "inputs": [],
      "name": "depositEth",
      "outputs": [],
      "stateMutability": "payable",
      "type": "function"
    },
    {
      "inputs": [],
      "name": "getBalEth",
      "outputs": [
        {
          "internalType": "uint256",
          "name": "",
          "type": "uint256"
        }
      ],
      "stateMutability": "view",
      "type": "function"
    },
    {
      "inputs": [
        {
          "internalType": "bytes32",
          "name": "_ticker",
          "type": "bytes32"
        },
        {
          "internalType": "address",
          "name": "_address",
          "type": "address"
        }
      ],
      "name": "getBalanceOf",
      "outputs": [
        {
          "internalType": "uint256",
          "name": "",
          "type": "uint256"
        }
      ],
      "stateMutability": "view",
      "type": "function"
    },
    {
      "inputs": [],
      "name": "nextOrderID",
      "outputs": [
        {
          "internalType": "uint256",
          "name": "",
          "type": "uint256"
        }
      ],
      "stateMutability": "view",
      "type": "function"
    },
    {
      "inputs": [
        {
          "internalType": "bytes32",
          "name": "",
          "type": "bytes32"
        },
        {
          "internalType": "uint256",
          "name": "",
          "type": "uint256"
        },
        {
          "internalType": "uint256",
          "name": "",
          "type": "uint256"
        }
      ],
      "name": "orderBook",
      "outputs": [
        {
          "internalType": "uint256",
          "name": "id",
          "type": "uint256"
        },
        {
          "internalType": "bytes32",
          "name": "ticker",
          "type": "bytes32"
        },
        {
          "internalType": "uint256",
          "name": "amount",
          "type": "uint256"
        },
        {
          "internalType": "uint256",
          "name": "price",
          "type": "uint256"
        },
        {
          "internalType": "enum Dex.Side",
          "name": "side",
          "type": "uint8"
        },
        {
          "internalType": "address",
          "name": "trader",
          "type": "address"
        }
      ],
      "stateMutability": "view",
      "type": "function"
    },
    {
      "inputs": [],
      "name": "owner",
      "outputs": [
        {
          "internalType": "address",
          "name": "",
          "type": "address"
        }
      ],
      "stateMutability": "view",
      "type": "function"
    },
    {
      "inputs": [],
      "name": "renounceOwnership",
      "outputs": [],
      "stateMutability": "nonpayable",
      "type": "function"
    },
    {
      "inputs": [
        {
          "internalType": "uint256",
          "name": "",
          "type": "uint256"
        }
      ],
      "name": "tokenList",
      "outputs": [
        {
          "internalType": "bytes32",
          "name": "",
          "type": "bytes32"
        }
      ],
      "stateMutability": "view",
      "type": "function"
    },
    {
      "inputs": [
        {
          "internalType": "address",
          "name": "newOwner",
          "type": "address"
        }
      ],
      "name": "transferOwnership",
      "outputs": [],
      "stateMutability": "nonpayable",
      "type": "function"
    },
    {
      "inputs": [
        {
          "internalType": "uint256",
          "name": "_amount",
          "type": "uint256"
        },
        {
          "internalType": "bytes32",
          "name": "_ticker",
          "type": "bytes32"
        }
      ],
      "name": "withdraw",
      "outputs": [],
      "stateMutability": "nonpayable",
      "type": "function"
    },
    {
      "inputs": [
        {
          "internalType": "uint256",
          "name": "_amount",
          "type": "uint256"
        }
      ],
      "name": "withdrawEth",
      "outputs": [],
      "stateMutability": "nonpayable",
      "type": "function"
    },
    {
      "inputs": [
        {
          "internalType": "bytes32",
          "name": "_ticker",
          "type": "bytes32"
        },
        {
          "internalType": "enum Dex.Side",
          "name": "_side",
          "type": "uint8"
        }
      ],
      "name": "getOrderBook",
      "outputs": [
        {
          "components": [
            {
              "internalType": "uint256",
              "name": "id",
              "type": "uint256"
            },
            {
              "internalType": "bytes32",
              "name": "ticker",
              "type": "bytes32"
            },
            {
              "internalType": "uint256",
              "name": "amount",
              "type": "uint256"
            },
            {
              "internalType": "uint256",
              "name": "price",
              "type": "uint256"
            },
            {
              "internalType": "enum Dex.Side",
              "name": "side",
              "type": "uint8"
            },
            {
              "internalType": "address",
              "name": "trader",
              "type": "address"
            }
          ],
          "internalType": "struct Dex.Order[]",
          "name": "",
          "type": "tuple[]"
        }
      ],
      "stateMutability": "view",
      "type": "function"
    },
    {
      "inputs": [
        {
          "internalType": "bytes32",
          "name": "_ticker",
          "type": "bytes32"
        },
        {
          "internalType": "uint256",
          "name": "_amount",
          "type": "uint256"
        },
        {
          "internalType": "uint256",
          "name": "_price",
          "type": "uint256"
        },
        {
          "internalType": "enum Dex.Side",
          "name": "_side",
          "type": "uint8"
        }
      ],
      "name": "placeLimitOrder",
      "outputs": [],
      "stateMutability": "nonpayable",
      "type": "function"
    },
    {
      "inputs": [
        {
          "internalType": "bytes32",
          "name": "_ticker",
          "type": "bytes32"
        },
        {
          "internalType": "uint256",
          "name": "_amount",
          "type": "uint256"
        }
      ],
      "name": "placeMarketSell",
      "outputs": [],
      "stateMutability": "nonpayable",
      "type": "function"
    }
  ],
  "bytecode": "0x608060405234801561001057600080fd5b50600160008190555060006100296100cd60201b60201c565b905080600160006101000a81548173ffffffffffffffffffffffffffffffffffffffff021916908373ffffffffffffffffffffffffffffffffffffffff1602179055508073ffffffffffffffffffffffffffffffffffffffff16600073ffffffffffffffffffffffffffffffffffffffff167f8be0079c531659141344cd1fd0a4f28419497f9722a3daafe3b4186f6b6457e060405160405180910390a3506100d5565b600033905090565b61304480620000e56000396000f3fe6080604052600436106101095760003560e01c80639ead722211610095578063c9630cb011610064578063c9630cb014610360578063e3da9edb14610389578063f29f0141146103b2578063f2fde38b146103ef578063f47a0acc1461041857610109565b80639ead722214610294578063a8d2021a146102d1578063ba58ea68146102fa578063c311d0491461033757610109565b8063542151b3116100dc578063542151b3146101ae578063715018a6146101eb578063789b102d146102025780638da5cb5b146102405780639776aacf1461026b57610109565b80630bb431b61461010e5780632cdc52fe14610150578063439370b11461017b57806350c71f1514610185575b600080fd5b34801561011a57600080fd5b5061013560048036038101906101309190612508565b610443565b60405161014796959493929190612c6a565b60405180910390f35b34801561015c57600080fd5b506101656104d6565b6040516101729190612c4f565b60405180910390f35b61018361051d565b005b34801561019157600080fd5b506101ac60048036038101906101a79190612557565b610575565b005b3480156101ba57600080fd5b506101d560048036038101906101d09190612454565b6114ea565b6040516101e29190612c4f565b60405180910390f35b3480156101f757600080fd5b50610200611545565b005b34801561020e57600080fd5b506102296004803603810190610224919061242b565b611682565b604051610237929190612ae6565b60405180910390f35b34801561024c57600080fd5b506102556116c6565b6040516102629190612a2e565b60405180910390f35b34801561027757600080fd5b50610292600480360381019061028d9190612454565b6116f0565b005b3480156102a057600080fd5b506102bb60048036038101906102b691906125ba565b611889565b6040516102c89190612acb565b60405180910390f35b3480156102dd57600080fd5b506102f860048036038101906102f391906125e3565b6118ad565b005b34801561030657600080fd5b50610321600480360381019061031c9190612490565b611b91565b60405161032e9190612aa9565b60405180910390f35b34801561034357600080fd5b5061035e600480360381019061035991906125ba565b611d52565b005b34801561036c57600080fd5b50610387600480360381019061038291906125e3565b611f46565b005b34801561039557600080fd5b506103b060048036038101906103ab91906124cc565b612128565b005b3480156103be57600080fd5b506103d960048036038101906103d491906123c6565b612142565b6040516103e69190612c4f565b60405180910390f35b3480156103fb57600080fd5b506104166004803603810190610411919061239d565b612167565b005b34801561042457600080fd5b5061042d612313565b60405161043a9190612c4f565b60405180910390f35b6007602052826000526040600020602052816000526040600020818154811061046b57600080fd5b906000526020600020906005020160009250925050508060000154908060010154908060020154908060030154908060040160009054906101000a900460ff16908060040160019054906101000a900473ffffffffffffffffffffffffffffffffffffffff16905086565b6000600560003373ffffffffffffffffffffffffffffffffffffffff1673ffffffffffffffffffffffffffffffffffffffff16815260200190815260200160002054905090565b34600560003373ffffffffffffffffffffffffffffffffffffffff1673ffffffffffffffffffffffffffffffffffffffff168152602001908152602001600020600082825461056c9190612d15565b92505081905550565b600060018111156105af577f4e487b7100000000000000000000000000000000000000000000000000000000600052602160045260246000fd5b8160018111156105e8577f4e487b7100000000000000000000000000000000000000000000000000000000600052602160045260246000fd5b14156106805781836105fa9190612da5565b600560003373ffffffffffffffffffffffffffffffffffffffff1673ffffffffffffffffffffffffffffffffffffffff16815260200190815260200160002054101561067b576040517f08c379a000000000000000000000000000000000000000000000000000000000815260040161067290612b6f565b60405180910390fd5b61078d565b6001808111156106b9577f4e487b7100000000000000000000000000000000000000000000000000000000600052602160045260246000fd5b8160018111156106f2577f4e487b7100000000000000000000000000000000000000000000000000000000600052602160045260246000fd5b141561078c5782600460003373ffffffffffffffffffffffffffffffffffffffff1673ffffffffffffffffffffffffffffffffffffffff168152602001908152602001600020600086815260200190815260200160002054101561078b576040517f08c379a000000000000000000000000000000000000000000000000000000000815260040161078290612baf565b60405180910390fd5b5b5b60006007600086815260200190815260200160002060008360018111156107dd577f4e487b7100000000000000000000000000000000000000000000000000000000600052602160045260246000fd5b81526020019081526020016000209050806040518060c00160405280600654815260200187815260200186815260200185815260200184600181111561084c577f4e487b7100000000000000000000000000000000000000000000000000000000600052602160045260246000fd5b81526020013373ffffffffffffffffffffffffffffffffffffffff1681525090806001815401808255809150506001900390600052602060002090600502016000909190919091506000820151816000015560208201518160010155604082015181600201556060820151816003015560808201518160040160006101000a81548160ff0219169083600181111561090d577f4e487b7100000000000000000000000000000000000000000000000000000000600052602160045260246000fd5b021790555060a08201518160040160016101000a81548173ffffffffffffffffffffffffffffffffffffffff021916908373ffffffffffffffffffffffffffffffffffffffff16021790555050506000818054905090506000600181111561099e577f4e487b7100000000000000000000000000000000000000000000000000000000600052602160045260246000fd5b8360018111156109d7577f4e487b7100000000000000000000000000000000000000000000000000000000600052602160045260246000fd5b1415610f19576000600190505b818163ffffffff161015610f13576000600182610a019190612d6b565b9050838163ffffffff1684610a169190612dff565b81548110610a4d577f4e487b7100000000000000000000000000000000000000000000000000000000600052603260045260246000fd5b906000526020600020906005020160030154848363ffffffff1685610a729190612dff565b81548110610aa9577f4e487b7100000000000000000000000000000000000000000000000000000000600052603260045260246000fd5b9060005260206000209060050201600301541115610ef9576000848263ffffffff1685610ad69190612dff565b81548110610b0d577f4e487b7100000000000000000000000000000000000000000000000000000000600052603260045260246000fd5b90600052602060002090600502016040518060c0016040529081600082015481526020016001820154815260200160028201548152602001600382015481526020016004820160009054906101000a900460ff166001811115610b99577f4e487b7100000000000000000000000000000000000000000000000000000000600052602160045260246000fd5b6001811115610bd1577f4e487b7100000000000000000000000000000000000000000000000000000000600052602160045260246000fd5b81526020016004820160019054906101000a900473ffffffffffffffffffffffffffffffffffffffff1673ffffffffffffffffffffffffffffffffffffffff1673ffffffffffffffffffffffffffffffffffffffff16815250509050848363ffffffff1685610c409190612dff565b81548110610c77577f4e487b7100000000000000000000000000000000000000000000000000000000600052603260045260246000fd5b9060005260206000209060050201858363ffffffff1686610c989190612dff565b81548110610ccf577f4e487b7100000000000000000000000000000000000000000000000000000000600052603260045260246000fd5b9060005260206000209060050201600082015481600001556001820154816001015560028201548160020155600382015481600301556004820160009054906101000a900460ff168160040160006101000a81548160ff02191690836001811115610d63577f4e487b7100000000000000000000000000000000000000000000000000000000600052602160045260246000fd5b02179055506004820160019054906101000a900473ffffffffffffffffffffffffffffffffffffffff168160040160016101000a81548173ffffffffffffffffffffffffffffffffffffffff021916908373ffffffffffffffffffffffffffffffffffffffff16021790555090505080858463ffffffff1686610de69190612dff565b81548110610e1d577f4e487b7100000000000000000000000000000000000000000000000000000000600052603260045260246000fd5b90600052602060002090600502016000820151816000015560208201518160010155604082015181600201556060820151816003015560808201518160040160006101000a81548160ff02191690836001811115610ea4577f4e487b7100000000000000000000000000000000000000000000000000000000600052602160045260246000fd5b021790555060a08201518160040160016101000a81548173ffffffffffffffffffffffffffffffffffffffff021916908373ffffffffffffffffffffffffffffffffffffffff16021790555090505050610eff565b50610f13565b508080610f0b90612f03565b9150506109e4565b506114ca565b600180811115610f52577f4e487b7100000000000000000000000000000000000000000000000000000000600052602160045260246000fd5b836001811115610f8b577f4e487b7100000000000000000000000000000000000000000000000000000000600052602160045260246000fd5b14156114c9576000600190505b818163ffffffff1610156114c7576000600182610fb59190612d6b565b9050838163ffffffff1684610fca9190612dff565b81548110611001577f4e487b7100000000000000000000000000000000000000000000000000000000600052603260045260246000fd5b906000526020600020906005020160030154848363ffffffff16856110269190612dff565b8154811061105d577f4e487b7100000000000000000000000000000000000000000000000000000000600052603260045260246000fd5b90600052602060002090600502016003015410156114ad576000848263ffffffff168561108a9190612dff565b815481106110c1577f4e487b7100000000000000000000000000000000000000000000000000000000600052603260045260246000fd5b90600052602060002090600502016040518060c0016040529081600082015481526020016001820154815260200160028201548152602001600382015481526020016004820160009054906101000a900460ff16600181111561114d577f4e487b7100000000000000000000000000000000000000000000000000000000600052602160045260246000fd5b6001811115611185577f4e487b7100000000000000000000000000000000000000000000000000000000600052602160045260246000fd5b81526020016004820160019054906101000a900473ffffffffffffffffffffffffffffffffffffffff1673ffffffffffffffffffffffffffffffffffffffff1673ffffffffffffffffffffffffffffffffffffffff16815250509050848363ffffffff16856111f49190612dff565b8154811061122b577f4e487b7100000000000000000000000000000000000000000000000000000000600052603260045260246000fd5b9060005260206000209060050201858363ffffffff168661124c9190612dff565b81548110611283577f4e487b7100000000000000000000000000000000000000000000000000000000600052603260045260246000fd5b9060005260206000209060050201600082015481600001556001820154816001015560028201548160020155600382015481600301556004820160009054906101000a900460ff168160040160006101000a81548160ff02191690836001811115611317577f4e487b7100000000000000000000000000000000000000000000000000000000600052602160045260246000fd5b02179055506004820160019054906101000a900473ffffffffffffffffffffffffffffffffffffffff168160040160016101000a81548173ffffffffffffffffffffffffffffffffffffffff021916908373ffffffffffffffffffffffffffffffffffffffff16021790555090505080858463ffffffff168661139a9190612dff565b815481106113d1577f4e487b7100000000000000000000000000000000000000000000000000000000600052603260045260246000fd5b90600052602060002090600502016000820151816000015560208201518160010155604082015181600201556060820151816003015560808201518160040160006101000a81548160ff02191690836001811115611458577f4e487b7100000000000000000000000000000000000000000000000000000000600052602160045260246000fd5b021790555060a08201518160040160016101000a81548173ffffffffffffffffffffffffffffffffffffffff021916908373ffffffffffffffffffffffffffffffffffffffff160217905550905050506114b3565b506114c7565b5080806114bf90612f03565b915050610f98565b505b5b600660008154809291906114dd90612eba565b9190505550505050505050565b6000600460008373ffffffffffffffffffffffffffffffffffffffff1673ffffffffffffffffffffffffffffffffffffffff168152602001908152602001600020600084815260200190815260200160002054905092915050565b61154d612319565b73ffffffffffffffffffffffffffffffffffffffff1661156b6116c6565b73ffffffffffffffffffffffffffffffffffffffff16146115c1576040517f08c379a00000000000000000000000000000000000000000000000000000000081526004016115b890612b8f565b60405180910390fd5b600073ffffffffffffffffffffffffffffffffffffffff16600160009054906101000a900473ffffffffffffffffffffffffffffffffffffffff1673ffffffffffffffffffffffffffffffffffffffff167f8be0079c531659141344cd1fd0a4f28419497f9722a3daafe3b4186f6b6457e060405160405180910390a36000600160006101000a81548173ffffffffffffffffffffffffffffffffffffffff021916908373ffffffffffffffffffffffffffffffffffffffff160217905550565b60026020528060005260406000206000915090508060000154908060010160009054906101000a900473ffffffffffffffffffffffffffffffffffffffff16905082565b6000600160009054906101000a900473ffffffffffffffffffffffffffffffffffffffff16905090565b6116f8612319565b73ffffffffffffffffffffffffffffffffffffffff166117166116c6565b73ffffffffffffffffffffffffffffffffffffffff161461176c576040517f08c379a000000000000000000000000000000000000000000000000000000000815260040161176390612b8f565b60405180910390fd5b61178b8173ffffffffffffffffffffffffffffffffffffffff16612321565b6117ca576040517f08c379a00000000000000000000000000000000000000000000000000000000081526004016117c190612b0f565b60405180910390fd5b60405180604001604052808381526020018273ffffffffffffffffffffffffffffffffffffffff16815250600260008481526020019081526020016000206000820151816000015560208201518160010160006101000a81548173ffffffffffffffffffffffffffffffffffffffff021916908373ffffffffffffffffffffffffffffffffffffffff16021790555090505060038290806001815401808255809150506001900390600052602060002001600090919091909150555050565b6003818154811061189957600080fd5b906000526020600020016000915090505481565b6118b5612319565b73ffffffffffffffffffffffffffffffffffffffff166118d36116c6565b73ffffffffffffffffffffffffffffffffffffffff1614611929576040517f08c379a000000000000000000000000000000000000000000000000000000000815260040161192090612b8f565b60405180910390fd5b600073ffffffffffffffffffffffffffffffffffffffff166002600083815260200190815260200160002060010160009054906101000a900473ffffffffffffffffffffffffffffffffffffffff1673ffffffffffffffffffffffffffffffffffffffff1614156119cf576040517f08c379a00000000000000000000000000000000000000000000000000000000081526004016119c690612bef565b60405180910390fd5b81600460003373ffffffffffffffffffffffffffffffffffffffff1673ffffffffffffffffffffffffffffffffffffffff1681526020019081526020016000206000838152602001908152602001600020541015611a62576040517f08c379a0000000000000000000000000000000000000000000000000000000008152600401611a5990612b2f565b60405180910390fd5b81600460003373ffffffffffffffffffffffffffffffffffffffff1673ffffffffffffffffffffffffffffffffffffffff16815260200190815260200160002060008381526020019081526020016000206000828254611ac29190612dff565b925050819055506002600082815260200190815260200160002060010160009054906101000a900473ffffffffffffffffffffffffffffffffffffffff1673ffffffffffffffffffffffffffffffffffffffff1663a9059cbb33846040518363ffffffff1660e01b8152600401611b3a929190612a80565b602060405180830381600087803b158015611b5457600080fd5b505af1158015611b68573d6000803e3d6000fd5b505050506040513d601f19601f82011682018060405250810190611b8c9190612402565b505050565b6060600760008481526020019081526020016000206000836001811115611be1577f4e487b7100000000000000000000000000000000000000000000000000000000600052602160045260246000fd5b8152602001908152602001600020805480602002602001604051908101604052809291908181526020016000905b82821015611d4657838290600052602060002090600502016040518060c0016040529081600082015481526020016001820154815260200160028201548152602001600382015481526020016004820160009054906101000a900460ff166001811115611ca5577f4e487b7100000000000000000000000000000000000000000000000000000000600052602160045260246000fd5b6001811115611cdd577f4e487b7100000000000000000000000000000000000000000000000000000000600052602160045260246000fd5b81526020016004820160019054906101000a900473ffffffffffffffffffffffffffffffffffffffff1673ffffffffffffffffffffffffffffffffffffffff1673ffffffffffffffffffffffffffffffffffffffff168152505081526020019060010190611c0f565b50505050905092915050565b611d5a612319565b73ffffffffffffffffffffffffffffffffffffffff16611d786116c6565b73ffffffffffffffffffffffffffffffffffffffff1614611dce576040517f08c379a0000000000000000000000000000000000000000000000000000000008152600401611dc590612b8f565b60405180910390fd5b60026000541415611e14576040517f08c379a0000000000000000000000000000000000000000000000000000000008152600401611e0b90612c0f565b60405180910390fd5b600260008190555080600560003373ffffffffffffffffffffffffffffffffffffffff1673ffffffffffffffffffffffffffffffffffffffff168152602001908152602001600020541015611e9e576040517f08c379a0000000000000000000000000000000000000000000000000000000008152600401611e9590612c2f565b60405180910390fd5b80600560003373ffffffffffffffffffffffffffffffffffffffff1673ffffffffffffffffffffffffffffffffffffffff1681526020019081526020016000206000828254611eed9190612dff565b925050819055503373ffffffffffffffffffffffffffffffffffffffff166108fc829081150290604051600060405180830381858888f19350505050158015611f3a573d6000803e3d6000fd5b50600160008190555050565b600073ffffffffffffffffffffffffffffffffffffffff166002600083815260200190815260200160002060010160009054906101000a900473ffffffffffffffffffffffffffffffffffffffff1673ffffffffffffffffffffffffffffffffffffffff161415611fec576040517f08c379a0000000000000000000000000000000000000000000000000000000008152600401611fe390612bcf565b60405180910390fd5b60006002600083815260200190815260200160002060010160009054906101000a900473ffffffffffffffffffffffffffffffffffffffff1673ffffffffffffffffffffffffffffffffffffffff166323b872dd3330866040518463ffffffff1660e01b815260040161206193929190612a49565b602060405180830381600087803b15801561207b57600080fd5b505af115801561208f573d6000803e3d6000fd5b505050506040513d601f19601f820116820180604052508101906120b39190612402565b905080156121235782600460003373ffffffffffffffffffffffffffffffffffffffff1673ffffffffffffffffffffffffffffffffffffffff1681526020019081526020016000206000848152602001908152602001600020600082825461211b9190612d15565b925050819055505b505050565b8061213383336114ea565b101561213e57600080fd5b5050565b6004602052816000526040600020602052806000526040600020600091509150505481565b61216f612319565b73ffffffffffffffffffffffffffffffffffffffff1661218d6116c6565b73ffffffffffffffffffffffffffffffffffffffff16146121e3576040517f08c379a00000000000000000000000000000000000000000000000000000000081526004016121da90612b8f565b60405180910390fd5b600073ffffffffffffffffffffffffffffffffffffffff168173ffffffffffffffffffffffffffffffffffffffff161415612253576040517f08c379a000000000000000000000000000000000000000000000000000000000815260040161224a90612b4f565b60405180910390fd5b8073ffffffffffffffffffffffffffffffffffffffff16600160009054906101000a900473ffffffffffffffffffffffffffffffffffffffff1673ffffffffffffffffffffffffffffffffffffffff167f8be0079c531659141344cd1fd0a4f28419497f9722a3daafe3b4186f6b6457e060405160405180910390a380600160006101000a81548173ffffffffffffffffffffffffffffffffffffffff021916908373ffffffffffffffffffffffffffffffffffffffff16021790555050565b60065481565b600033905090565b600080823b905060008111915050919050565b60008135905061234381612fa2565b92915050565b60008151905061235881612fb9565b92915050565b60008135905061236d81612fd0565b92915050565b60008135905061238281612fe7565b92915050565b60008135905061239781612ff7565b92915050565b6000602082840312156123af57600080fd5b60006123bd84828501612334565b91505092915050565b600080604083850312156123d957600080fd5b60006123e785828601612334565b92505060206123f88582860161235e565b9150509250929050565b60006020828403121561241457600080fd5b600061242284828501612349565b91505092915050565b60006020828403121561243d57600080fd5b600061244b8482850161235e565b91505092915050565b6000806040838503121561246757600080fd5b60006124758582860161235e565b925050602061248685828601612334565b9150509250929050565b600080604083850312156124a357600080fd5b60006124b18582860161235e565b92505060206124c285828601612373565b9150509250929050565b600080604083850312156124df57600080fd5b60006124ed8582860161235e565b92505060206124fe85828601612388565b9150509250929050565b60008060006060848603121561251d57600080fd5b600061252b8682870161235e565b935050602061253c86828701612388565b925050604061254d86828701612388565b9150509250925092565b6000806000806080858703121561256d57600080fd5b600061257b8782880161235e565b945050602061258c87828801612388565b935050604061259d87828801612388565b92505060606125ae87828801612373565b91505092959194509250565b6000602082840312156125cc57600080fd5b60006125da84828501612388565b91505092915050565b600080604083850312156125f657600080fd5b600061260485828601612388565b92505060206126158582860161235e565b9150509250929050565b600061262b8383612995565b60c08301905092915050565b61264081612e33565b82525050565b61264f81612e33565b82525050565b600061266082612cdb565b61266a8185612cf3565b935061267583612ccb565b8060005b838110156126a657815161268d888261261f565b975061269883612ce6565b925050600181019050612679565b5085935050505092915050565b6126bc81612e51565b82525050565b6126cb81612e51565b82525050565b6126da81612ea8565b82525050565b6126e981612ea8565b82525050565b60006126fc601683612d04565b91507f6e6f74206120636f6e74726163742061646472657373000000000000000000006000830152602082019050919050565b600061273c601283612d04565b91507f20696e737566696369656e742066756e647300000000000000000000000000006000830152602082019050919050565b600061277c602683612d04565b91507f4f776e61626c653a206e6577206f776e657220697320746865207a65726f206160008301527f64647265737300000000000000000000000000000000000000000000000000006020830152604082019050919050565b60006127e2600e83612d04565b91507f4e6f7420656e6f756768204554480000000000000000000000000000000000006000830152602082019050919050565b6000612822602083612d04565b91507f4f776e61626c653a2063616c6c6572206973206e6f7420746865206f776e65726000830152602082019050919050565b6000612862601983612d04565b91507f4e6f7420656e6f75676820746f6b656e207175616e74697479000000000000006000830152602082019050919050565b60006128a2601a83612d04565b91507f706c65617365206164642074686520746f6b656e2066697273740000000000006000830152602082019050919050565b60006128e2601083612d04565b91507f61646420746f6b656e2066697273742e000000000000000000000000000000006000830152602082019050919050565b6000612922601f83612d04565b91507f5265656e7472616e637947756172643a207265656e7472616e742063616c6c006000830152602082019050919050565b6000612962600e83612d04565b91507f6e6f7420656e6f756768206574680000000000000000000000000000000000006000830152602082019050919050565b60c0820160008201516129ab6000850182612a10565b5060208201516129be60208501826126b3565b5060408201516129d16040850182612a10565b5060608201516129e46060850182612a10565b5060808201516129f760808501826126d1565b5060a0820151612a0a60a0850182612637565b50505050565b612a1981612e8e565b82525050565b612a2881612e8e565b82525050565b6000602082019050612a436000830184612646565b92915050565b6000606082019050612a5e6000830186612646565b612a6b6020830185612646565b612a786040830184612a1f565b949350505050565b6000604082019050612a956000830185612646565b612aa26020830184612a1f565b9392505050565b60006020820190508181036000830152612ac38184612655565b905092915050565b6000602082019050612ae060008301846126c2565b92915050565b6000604082019050612afb60008301856126c2565b612b086020830184612646565b9392505050565b60006020820190508181036000830152612b28816126ef565b9050919050565b60006020820190508181036000830152612b488161272f565b9050919050565b60006020820190508181036000830152612b688161276f565b9050919050565b60006020820190508181036000830152612b88816127d5565b9050919050565b60006020820190508181036000830152612ba881612815565b9050919050565b60006020820190508181036000830152612bc881612855565b9050919050565b60006020820190508181036000830152612be881612895565b9050919050565b60006020820190508181036000830152612c08816128d5565b9050919050565b60006020820190508181036000830152612c2881612915565b9050919050565b60006020820190508181036000830152612c4881612955565b9050919050565b6000602082019050612c646000830184612a1f565b92915050565b600060c082019050612c7f6000830189612a1f565b612c8c60208301886126c2565b612c996040830187612a1f565b612ca66060830186612a1f565b612cb360808301856126e0565b612cc060a0830184612646565b979650505050505050565b6000819050602082019050919050565b600081519050919050565b6000602082019050919050565b600082825260208201905092915050565b600082825260208201905092915050565b6000612d2082612e8e565b9150612d2b83612e8e565b9250827fffffffffffffffffffffffffffffffffffffffffffffffffffffffffffffffff03821115612d6057612d5f612f30565b5b828201905092915050565b6000612d7682612e98565b9150612d8183612e98565b92508263ffffffff03821115612d9a57612d99612f30565b5b828201905092915050565b6000612db082612e8e565b9150612dbb83612e8e565b9250817fffffffffffffffffffffffffffffffffffffffffffffffffffffffffffffffff0483118215151615612df457612df3612f30565b5b828202905092915050565b6000612e0a82612e8e565b9150612e1583612e8e565b925082821015612e2857612e27612f30565b5b828203905092915050565b6000612e3e82612e6e565b9050919050565b60008115159050919050565b6000819050919050565b6000819050612e6982612f8e565b919050565b600073ffffffffffffffffffffffffffffffffffffffff82169050919050565b6000819050919050565b600063ffffffff82169050919050565b6000612eb382612e5b565b9050919050565b6000612ec582612e8e565b91507fffffffffffffffffffffffffffffffffffffffffffffffffffffffffffffffff821415612ef857612ef7612f30565b5b600182019050919050565b6000612f0e82612e98565b915063ffffffff821415612f2557612f24612f30565b5b600182019050919050565b7f4e487b7100000000000000000000000000000000000000000000000000000000600052601160045260246000fd5b7f4e487b7100000000000000000000000000000000000000000000000000000000600052602160045260246000fd5b60028110612f9f57612f9e612f5f565b5b50565b612fab81612e33565b8114612fb657600080fd5b50565b612fc281612e45565b8114612fcd57600080fd5b50565b612fd981612e51565b8114612fe457600080fd5b50565b60028110612ff457600080fd5b50565b61300081612e8e565b811461300b57600080fd5b5056fea26469706673582212205593f12d62e9ad993a0a5ac984dd9f7e930ece86f91572a9cf2888474ed3549c64736f6c63430008000033",
  "immutableReferences": {},
  "source": "pragma solidity 0.8.0;\n\nimport \"./wallet.sol\";\n\ncontract Dex is wallet{\n\n  enum Side{\n    BUY, // 0\n    SELL // 1\n\n  }\n\n  struct Order { \n    \n    uint id;\n    bytes32 ticker;\n    uint amount;\n    uint price;\n    Side side;\n    address trader;\n  }\n  \n  uint public nextOrderID; //contador de ordenes\n\n  mapping(bytes32 => mapping(uint => Order[])) public orderBook;\n\n  function getOrderBook(bytes32 _ticker, Side _side) view public returns(Order[] memory){\n    return orderBook[_ticker][uint(_side)];\n  \n  }\n  \n  function placeLimitOrder(bytes32 _ticker, uint _amount,uint _price,  Side _side) public {\n    if(_side == Side.BUY){\n       require(ethBalance[msg.sender] >= _amount*_price, \"Not enough ETH\");\n     }\n    else if(_side == Side.SELL){\n       require(TokenBalances[msg.sender][_ticker] >= _amount, \"Not enough token quantity\");\n    }      \n\n    Order[] storage orders = orderBook[_ticker][uint(_side)]; // this is a pointer.\n    orders.push(\n        Order(nextOrderID, _ticker,_amount,_price,_side,msg.sender)  \n    );\n\n    //Bubble sort ---- se puede optimizar. \n    \n    uint l = orders.length;\n  \n    if( _side == Side.BUY){\n      for(uint32 i=1; i<l;i++){\n        uint32 j =i+1;\n        if(orders[l-i].price>orders[l-j].price){\n           Order memory cheaper = orders[l-j];\n           orders[l-j] = orders[l-i];\n           orders[l-i] = cheaper;\n        }\n        else { break; }\n      }\n\n    }\n    else if(_side == Side.SELL){ \n    \n      for(uint32 i=1; i<l;i++){\n        uint32 j =i+1;\n        if(orders[l-i].price<orders[l-j].price){\n           Order memory mexpensive  = orders[l-j];\n           orders[l-j] = orders[l-i];\n           orders[l-i] = mexpensive;\n        }\n        else { break; }\n      }\n    }\n\n\n    nextOrderID++;\n  }\n\n  function placeMarketSell(bytes32 _ticker, uint _amount) public {\n    require(getBalanceOf(_ticker, msg.sender) >= _amount);\n  \n  }\n\n}\n\n",
  "sourcePath": "/home/frank/ethadvanced/eth201-2/project/contracts/dex.sol",
  "compiler": {
    "name": "solc",
    "version": "0.8.0+commit.c7dfd78e.Emscripten.clang"
  },
  "schemaVersion": "3.4.1",
  "updatedAt": "2021-07-18T20:05:50.408Z",
  "devdoc": {
    "kind": "dev",
    "methods": {
      "owner()": {
        "details": "Returns the address of the current owner."
      },
      "renounceOwnership()": {
        "details": "Leaves the contract without owner. It will not be possible to call `onlyOwner` functions anymore. Can only be called by the current owner. NOTE: Renouncing ownership will leave the contract without an owner, thereby removing any functionality that is only available to the owner."
      },
      "transferOwnership(address)": {
        "details": "Transfers ownership of the contract to a new account (`newOwner`). Can only be called by the current owner."
      }
    },
    "version": 1
  },
  "userdoc": {
    "kind": "user",
    "methods": {},
    "version": 1
  }
}