{
  "contractName": "wallet",
  "abi": [
    {
      "anonymous": false,
      "inputs": [
        {
          "indexed": true,
          "internalType": "address",
          "name": "previousOwner",
          "type": "address"
        },
        {
          "indexed": true,
          "internalType": "address",
          "name": "newOwner",
          "type": "address"
        }
      ],
      "name": "OwnershipTransferred",
      "type": "event"
    },
    {
      "inputs": [
        {
          "internalType": "address",
          "name": "",
          "type": "address"
        },
        {
          "internalType": "bytes32",
          "name": "",
          "type": "bytes32"
        }
      ],
      "name": "TokenBalances",
      "outputs": [
        {
          "internalType": "uint256",
          "name": "",
          "type": "uint256"
        }
      ],
      "stateMutability": "view",
      "type": "function"
    },
    {
      "inputs": [
        {
          "internalType": "bytes32",
          "name": "",
          "type": "bytes32"
        }
      ],
      "name": "TokenMapping",
      "outputs": [
        {
          "internalType": "bytes32",
          "name": "ticker",
          "type": "bytes32"
        },
        {
          "internalType": "address",
          "name": "TokenAddress",
          "type": "address"
        }
      ],
      "stateMutability": "view",
      "type": "function"
    },
    {
      "inputs": [],
      "name": "owner",
      "outputs": [
        {
          "internalType": "address",
          "name": "",
          "type": "address"
        }
      ],
      "stateMutability": "view",
      "type": "function"
    },
    {
      "inputs": [],
      "name": "renounceOwnership",
      "outputs": [],
      "stateMutability": "nonpayable",
      "type": "function"
    },
    {
      "inputs": [
        {
          "internalType": "uint256",
          "name": "",
          "type": "uint256"
        }
      ],
      "name": "tokenList",
      "outputs": [
        {
          "internalType": "bytes32",
          "name": "",
          "type": "bytes32"
        }
      ],
      "stateMutability": "view",
      "type": "function"
    },
    {
      "inputs": [
        {
          "internalType": "address",
          "name": "newOwner",
          "type": "address"
        }
      ],
      "name": "transferOwnership",
      "outputs": [],
      "stateMutability": "nonpayable",
      "type": "function"
    },
    {
      "inputs": [
        {
          "internalType": "bytes32",
          "name": "_ticker",
          "type": "bytes32"
        },
        {
          "internalType": "address",
          "name": "_tokenAddress",
          "type": "address"
        }
      ],
      "name": "addToken",
      "outputs": [],
      "stateMutability": "nonpayable",
      "type": "function"
    },
    {
      "inputs": [],
      "name": "depositEth",
      "outputs": [],
      "stateMutability": "payable",
      "type": "function"
    },
    {
      "inputs": [
        {
          "internalType": "uint256",
          "name": "_amount",
          "type": "uint256"
        },
        {
          "internalType": "bytes32",
          "name": "_ticker",
          "type": "bytes32"
        }
      ],
      "name": "deposit",
      "outputs": [],
      "stateMutability": "nonpayable",
      "type": "function"
    },
    {
      "inputs": [
        {
          "internalType": "bytes32",
          "name": "_ticker",
          "type": "bytes32"
        },
        {
          "internalType": "address",
          "name": "_address",
          "type": "address"
        }
      ],
      "name": "getBalanceOf",
      "outputs": [
        {
          "internalType": "uint256",
          "name": "",
          "type": "uint256"
        }
      ],
      "stateMutability": "view",
      "type": "function"
    },
    {
      "inputs": [],
      "name": "getBalEth",
      "outputs": [
        {
          "internalType": "uint256",
          "name": "",
          "type": "uint256"
        }
      ],
      "stateMutability": "view",
      "type": "function"
    },
    {
      "inputs": [
        {
          "internalType": "uint256",
          "name": "_amount",
          "type": "uint256"
        },
        {
          "internalType": "bytes32",
          "name": "_ticker",
          "type": "bytes32"
        }
      ],
      "name": "withdraw",
      "outputs": [],
      "stateMutability": "nonpayable",
      "type": "function"
    },
    {
      "inputs": [
        {
          "internalType": "uint256",
          "name": "_amount",
          "type": "uint256"
        }
      ],
      "name": "withdrawEth",
      "outputs": [],
      "stateMutability": "nonpayable",
      "type": "function"
    }
  ],
  "bytecode": "0x608060405234801561001057600080fd5b50600160008190555060006100296100cd60201b60201c565b905080600160006101000a81548173ffffffffffffffffffffffffffffffffffffffff021916908373ffffffffffffffffffffffffffffffffffffffff1602179055508073ffffffffffffffffffffffffffffffffffffffff16600073ffffffffffffffffffffffffffffffffffffffff167f8be0079c531659141344cd1fd0a4f28419497f9722a3daafe3b4186f6b6457e060405160405180910390a3506100d5565b600033905090565b61178f806100e46000396000f3fe6080604052600436106100c25760003560e01c80639776aacf1161007f578063c311d04911610059578063c311d04914610248578063c9630cb014610271578063f29f01411461029a578063f2fde38b146102d7576100c2565b80639776aacf146101b95780639ead7222146101e2578063a8d2021a1461021f576100c2565b80632cdc52fe146100c7578063439370b1146100f2578063542151b3146100fc578063715018a614610139578063789b102d146101505780638da5cb5b1461018e575b600080fd5b3480156100d357600080fd5b506100dc610300565b6040516100e991906115c6565b60405180910390f35b6100fa610347565b005b34801561010857600080fd5b50610123600480360381019061011e9190611113565b61039f565b60405161013091906115c6565b60405180910390f35b34801561014557600080fd5b5061014e6103fa565b005b34801561015c57600080fd5b50610177600480360381019061017291906110ea565b610537565b60405161018592919061149d565b60405180910390f35b34801561019a57600080fd5b506101a361057b565b6040516101b09190611407565b60405180910390f35b3480156101c557600080fd5b506101e060048036038101906101db9190611113565b6105a5565b005b3480156101ee57600080fd5b506102096004803603810190610204919061114f565b61073e565b6040516102169190611482565b60405180910390f35b34801561022b57600080fd5b5061024660048036038101906102419190611178565b610762565b005b34801561025457600080fd5b5061026f600480360381019061026a919061114f565b610a46565b005b34801561027d57600080fd5b5061029860048036038101906102939190611178565b610c3a565b005b3480156102a657600080fd5b506102c160048036038101906102bc9190611085565b610e1c565b6040516102ce91906115c6565b60405180910390f35b3480156102e357600080fd5b506102fe60048036038101906102f9919061105c565b610e41565b005b6000600560003373ffffffffffffffffffffffffffffffffffffffff1673ffffffffffffffffffffffffffffffffffffffff16815260200190815260200160002054905090565b34600560003373ffffffffffffffffffffffffffffffffffffffff1673ffffffffffffffffffffffffffffffffffffffff168152602001908152602001600020600082825461039691906115f2565b92505081905550565b6000600460008373ffffffffffffffffffffffffffffffffffffffff1673ffffffffffffffffffffffffffffffffffffffff168152602001908152602001600020600084815260200190815260200160002054905092915050565b610402610fed565b73ffffffffffffffffffffffffffffffffffffffff1661042061057b565b73ffffffffffffffffffffffffffffffffffffffff1614610476576040517f08c379a000000000000000000000000000000000000000000000000000000000815260040161046d90611526565b60405180910390fd5b600073ffffffffffffffffffffffffffffffffffffffff16600160009054906101000a900473ffffffffffffffffffffffffffffffffffffffff1673ffffffffffffffffffffffffffffffffffffffff167f8be0079c531659141344cd1fd0a4f28419497f9722a3daafe3b4186f6b6457e060405160405180910390a36000600160006101000a81548173ffffffffffffffffffffffffffffffffffffffff021916908373ffffffffffffffffffffffffffffffffffffffff160217905550565b60026020528060005260406000206000915090508060000154908060010160009054906101000a900473ffffffffffffffffffffffffffffffffffffffff16905082565b6000600160009054906101000a900473ffffffffffffffffffffffffffffffffffffffff16905090565b6105ad610fed565b73ffffffffffffffffffffffffffffffffffffffff166105cb61057b565b73ffffffffffffffffffffffffffffffffffffffff1614610621576040517f08c379a000000000000000000000000000000000000000000000000000000000815260040161061890611526565b60405180910390fd5b6106408173ffffffffffffffffffffffffffffffffffffffff16610ff5565b61067f576040517f08c379a0000000000000000000000000000000000000000000000000000000008152600401610676906114c6565b60405180910390fd5b60405180604001604052808381526020018273ffffffffffffffffffffffffffffffffffffffff16815250600260008481526020019081526020016000206000820151816000015560208201518160010160006101000a81548173ffffffffffffffffffffffffffffffffffffffff021916908373ffffffffffffffffffffffffffffffffffffffff16021790555090505060038290806001815401808255809150506001900390600052602060002001600090919091909150555050565b6003818154811061074e57600080fd5b906000526020600020016000915090505481565b61076a610fed565b73ffffffffffffffffffffffffffffffffffffffff1661078861057b565b73ffffffffffffffffffffffffffffffffffffffff16146107de576040517f08c379a00000000000000000000000000000000000000000000000000000000081526004016107d590611526565b60405180910390fd5b600073ffffffffffffffffffffffffffffffffffffffff166002600083815260200190815260200160002060010160009054906101000a900473ffffffffffffffffffffffffffffffffffffffff1673ffffffffffffffffffffffffffffffffffffffff161415610884576040517f08c379a000000000000000000000000000000000000000000000000000000000815260040161087b90611566565b60405180910390fd5b81600460003373ffffffffffffffffffffffffffffffffffffffff1673ffffffffffffffffffffffffffffffffffffffff1681526020019081526020016000206000838152602001908152602001600020541015610917576040517f08c379a000000000000000000000000000000000000000000000000000000000815260040161090e906114e6565b60405180910390fd5b81600460003373ffffffffffffffffffffffffffffffffffffffff1673ffffffffffffffffffffffffffffffffffffffff168152602001908152602001600020600083815260200190815260200160002060008282546109779190611648565b925050819055506002600082815260200190815260200160002060010160009054906101000a900473ffffffffffffffffffffffffffffffffffffffff1673ffffffffffffffffffffffffffffffffffffffff1663a9059cbb33846040518363ffffffff1660e01b81526004016109ef929190611459565b602060405180830381600087803b158015610a0957600080fd5b505af1158015610a1d573d6000803e3d6000fd5b505050506040513d601f19601f82011682018060405250810190610a4191906110c1565b505050565b610a4e610fed565b73ffffffffffffffffffffffffffffffffffffffff16610a6c61057b565b73ffffffffffffffffffffffffffffffffffffffff1614610ac2576040517f08c379a0000000000000000000000000000000000000000000000000000000008152600401610ab990611526565b60405180910390fd5b60026000541415610b08576040517f08c379a0000000000000000000000000000000000000000000000000000000008152600401610aff90611586565b60405180910390fd5b600260008190555080600560003373ffffffffffffffffffffffffffffffffffffffff1673ffffffffffffffffffffffffffffffffffffffff168152602001908152602001600020541015610b92576040517f08c379a0000000000000000000000000000000000000000000000000000000008152600401610b89906115a6565b60405180910390fd5b80600560003373ffffffffffffffffffffffffffffffffffffffff1673ffffffffffffffffffffffffffffffffffffffff1681526020019081526020016000206000828254610be19190611648565b925050819055503373ffffffffffffffffffffffffffffffffffffffff166108fc829081150290604051600060405180830381858888f19350505050158015610c2e573d6000803e3d6000fd5b50600160008190555050565b600073ffffffffffffffffffffffffffffffffffffffff166002600083815260200190815260200160002060010160009054906101000a900473ffffffffffffffffffffffffffffffffffffffff1673ffffffffffffffffffffffffffffffffffffffff161415610ce0576040517f08c379a0000000000000000000000000000000000000000000000000000000008152600401610cd790611546565b60405180910390fd5b60006002600083815260200190815260200160002060010160009054906101000a900473ffffffffffffffffffffffffffffffffffffffff1673ffffffffffffffffffffffffffffffffffffffff166323b872dd3330866040518463ffffffff1660e01b8152600401610d5593929190611422565b602060405180830381600087803b158015610d6f57600080fd5b505af1158015610d83573d6000803e3d6000fd5b505050506040513d601f19601f82011682018060405250810190610da791906110c1565b90508015610e175782600460003373ffffffffffffffffffffffffffffffffffffffff1673ffffffffffffffffffffffffffffffffffffffff16815260200190815260200160002060008481526020019081526020016000206000828254610e0f91906115f2565b925050819055505b505050565b6004602052816000526040600020602052806000526040600020600091509150505481565b610e49610fed565b73ffffffffffffffffffffffffffffffffffffffff16610e6761057b565b73ffffffffffffffffffffffffffffffffffffffff1614610ebd576040517f08c379a0000000000000000000000000000000000000000000000000000000008152600401610eb490611526565b60405180910390fd5b600073ffffffffffffffffffffffffffffffffffffffff168173ffffffffffffffffffffffffffffffffffffffff161415610f2d576040517f08c379a0000000000000000000000000000000000000000000000000000000008152600401610f2490611506565b60405180910390fd5b8073ffffffffffffffffffffffffffffffffffffffff16600160009054906101000a900473ffffffffffffffffffffffffffffffffffffffff1673ffffffffffffffffffffffffffffffffffffffff167f8be0079c531659141344cd1fd0a4f28419497f9722a3daafe3b4186f6b6457e060405160405180910390a380600160006101000a81548173ffffffffffffffffffffffffffffffffffffffff021916908373ffffffffffffffffffffffffffffffffffffffff16021790555050565b600033905090565b600080823b905060008111915050919050565b600081359050611017816116fd565b92915050565b60008151905061102c81611714565b92915050565b6000813590506110418161172b565b92915050565b60008135905061105681611742565b92915050565b60006020828403121561106e57600080fd5b600061107c84828501611008565b91505092915050565b6000806040838503121561109857600080fd5b60006110a685828601611008565b92505060206110b785828601611032565b9150509250929050565b6000602082840312156110d357600080fd5b60006110e18482850161101d565b91505092915050565b6000602082840312156110fc57600080fd5b600061110a84828501611032565b91505092915050565b6000806040838503121561112657600080fd5b600061113485828601611032565b925050602061114585828601611008565b9150509250929050565b60006020828403121561116157600080fd5b600061116f84828501611047565b91505092915050565b6000806040838503121561118b57600080fd5b600061119985828601611047565b92505060206111aa85828601611032565b9150509250929050565b6111bd8161167c565b82525050565b6111cc8161169a565b82525050565b60006111df6016836115e1565b91507f6e6f74206120636f6e74726163742061646472657373000000000000000000006000830152602082019050919050565b600061121f6012836115e1565b91507f20696e737566696369656e742066756e647300000000000000000000000000006000830152602082019050919050565b600061125f6026836115e1565b91507f4f776e61626c653a206e6577206f776e657220697320746865207a65726f206160008301527f64647265737300000000000000000000000000000000000000000000000000006020830152604082019050919050565b60006112c56020836115e1565b91507f4f776e61626c653a2063616c6c6572206973206e6f7420746865206f776e65726000830152602082019050919050565b6000611305601a836115e1565b91507f706c65617365206164642074686520746f6b656e2066697273740000000000006000830152602082019050919050565b60006113456010836115e1565b91507f61646420746f6b656e2066697273742e000000000000000000000000000000006000830152602082019050919050565b6000611385601f836115e1565b91507f5265656e7472616e637947756172643a207265656e7472616e742063616c6c006000830152602082019050919050565b60006113c5600e836115e1565b91507f6e6f7420656e6f756768206574680000000000000000000000000000000000006000830152602082019050919050565b611401816116c4565b82525050565b600060208201905061141c60008301846111b4565b92915050565b600060608201905061143760008301866111b4565b61144460208301856111b4565b61145160408301846113f8565b949350505050565b600060408201905061146e60008301856111b4565b61147b60208301846113f8565b9392505050565b600060208201905061149760008301846111c3565b92915050565b60006040820190506114b260008301856111c3565b6114bf60208301846111b4565b9392505050565b600060208201905081810360008301526114df816111d2565b9050919050565b600060208201905081810360008301526114ff81611212565b9050919050565b6000602082019050818103600083015261151f81611252565b9050919050565b6000602082019050818103600083015261153f816112b8565b9050919050565b6000602082019050818103600083015261155f816112f8565b9050919050565b6000602082019050818103600083015261157f81611338565b9050919050565b6000602082019050818103600083015261159f81611378565b9050919050565b600060208201905081810360008301526115bf816113b8565b9050919050565b60006020820190506115db60008301846113f8565b92915050565b600082825260208201905092915050565b60006115fd826116c4565b9150611608836116c4565b9250827fffffffffffffffffffffffffffffffffffffffffffffffffffffffffffffffff0382111561163d5761163c6116ce565b5b828201905092915050565b6000611653826116c4565b915061165e836116c4565b925082821015611671576116706116ce565b5b828203905092915050565b6000611687826116a4565b9050919050565b60008115159050919050565b6000819050919050565b600073ffffffffffffffffffffffffffffffffffffffff82169050919050565b6000819050919050565b7f4e487b7100000000000000000000000000000000000000000000000000000000600052601160045260246000fd5b6117068161167c565b811461171157600080fd5b50565b61171d8161168e565b811461172857600080fd5b50565b6117348161169a565b811461173f57600080fd5b50565b61174b816116c4565b811461175657600080fd5b5056fea2646970667358221220546da51ac9d715c5e2241804f84c998174bc8916e041384774656fee51c2846764736f6c63430008000033",
  "immutableReferences": {},
  "source": "pragma solidity 0.8.0;\n\nimport \"../@openzeppelin/contracts/token/ERC20/IERC20.sol\";    \nimport \"../@openzeppelin/contracts/security/ReentrancyGuard.sol\";\nimport \"../@openzeppelin/contracts/access/Ownable.sol\";\nimport \"../@openzeppelin/contracts/utils/Address.sol\";\n\ncontract wallet is ReentrancyGuard, Ownable{\n  \n  using Address for address;\n\n  struct Token{\n    bytes32 ticker;\n    address TokenAddress;\n  \n  }\n  \n  mapping(bytes32 => Token) public TokenMapping;\n  bytes32[] public tokenList;\n  \n  mapping(address => mapping(bytes32 => uint256)) public TokenBalances; // saves tokens.\n  mapping(address => uint256) ethBalance;                        // saves eth.\n\n  function addToken(bytes32 _ticker, address _tokenAddress) external onlyOwner {\n    require(_tokenAddress.isContract(), \"not a contract address\");\n    TokenMapping[_ticker] = Token(_ticker , _tokenAddress);\n    tokenList.push(_ticker);\n  }\n\n  function depositEth() public payable{\n    ethBalance[msg.sender] += msg.value;\n  }\n  \n  function deposit(uint _amount, bytes32 _ticker) external {\n    require(TokenMapping[_ticker].TokenAddress != address(0), \"please add the token first\");\n   \n    (bool sent) = IERC20(TokenMapping[_ticker].TokenAddress).transferFrom(msg.sender, address(this), _amount);\n    if(sent){ \n      TokenBalances[msg.sender][_ticker] += _amount;\n\n    }\n\n  \n  }\n  \n  function getBalanceOf(bytes32 _ticker, address _address) view public returns(uint){\n  return TokenBalances[_address][_ticker];\n  }\n\n  function getBalEth() view public returns(uint){\n  return ethBalance[msg.sender];\n  }\n\n  function withdraw(uint _amount, bytes32 _ticker) external onlyOwner {  \n    // 1_ Checks\n    require(TokenMapping[_ticker].TokenAddress != address(0), \"add token first.\");\n    require(TokenBalances[msg.sender][_ticker] >= _amount, \" insuficient funds\");\n    // 2_ Effects\n    TokenBalances[msg.sender][_ticker] -= _amount;\n    // 3_ Interactions\n    IERC20(TokenMapping[_ticker].TokenAddress).transfer(msg.sender, _amount);\n  }\n  \n  function withdrawEth(uint256 _amount) external onlyOwner nonReentrant {  //Reentrancy Guard should be used.\n    // 1_ Checks\n    require(ethBalance[msg.sender] >= _amount, \"not enough eth\");\n    // 2_ Effects\n    ethBalance[msg.sender] -= _amount;\n    // 3_ Interactions\n    payable(msg.sender).transfer(_amount);\n  \n  }\n}\n",
  "sourcePath": "/home/frank/ethadvanced/eth201-2/project/contracts/wallet.sol",
  "compiler": {
    "name": "solc",
    "version": "0.8.0+commit.c7dfd78e.Emscripten.clang"
  },
  "schemaVersion": "3.4.1",
  "updatedAt": "2021-07-18T20:05:50.431Z",
  "devdoc": {
    "kind": "dev",
    "methods": {
      "owner()": {
        "details": "Returns the address of the current owner."
      },
      "renounceOwnership()": {
        "details": "Leaves the contract without owner. It will not be possible to call `onlyOwner` functions anymore. Can only be called by the current owner. NOTE: Renouncing ownership will leave the contract without an owner, thereby removing any functionality that is only available to the owner."
      },
      "transferOwnership(address)": {
        "details": "Transfers ownership of the contract to a new account (`newOwner`). Can only be called by the current owner."
      }
    },
    "version": 1
  },
  "userdoc": {
    "kind": "user",
    "methods": {},
    "version": 1
  }
}